:020000040800F2
:1000000000000320F120000891090008970900086A
:100010009D090008A3090008A909000800000000C4
:10002000000000000000000000000000AF09000810
:10003000BD09000800000000CB090008D90900082C
:100040004121000841210008412100084121000808
:1000500041210008412100084121000841210008F8
:1000600041210008412100084121000841210008E8
:1000700041210008412100084121000841210008D8
:1000800041210008412100084121000841210008C8
:1000900041210008412100084121000841210008B8
:1000A00041210008412100084121000841210008A8
:1000B0004121000841210008412100084121000898
:1000C0004121000841210008412100084121000888
:1000D0004121000841210008412100084121000878
:1000E0004121000841210008412100084121000868
:1000F0004121000841210008412100084121000858
:100100004121000841210008412100084121000847
:100110004121000841210008412100084121000837
:100120004121000841210008412100084121000827
:100130004121000841210008412100084121000817
:100140004121000841210008412100084121000807
:1001500041210008412100084121000841210008F7
:1001600041210008412100084121000841210008E7
:100170004121000841210008412100080000000041
:1001800041210008412100084121000841210008C7
:1001900041210008412100084121000841210008B7
:0C01A00041210008412100084121000815
:1001AC0010B5054C237833B9044B13B10448AFF3A5
:1001BC0000800123237010BD0C0000200000000003
:1001CC009C21000808B5034B1BB103490348AFF34E
:1001DC00008008BD00000000100000209C210008D9
:1001EC0053B94AB9002908BF00281CBF4FF0FF3192
:1001FC004FF0FF3000F07AB9ADF1080C6DE904CE88
:10020C0000F006F8DDF804E0DDE9022304B07047E5
:10021C002DE9F0478C460D460446089E002B51D123
:10022C008A4217466DD9B2FA82FEBEF1000F0BD08E
:10023C00CEF1200C01FA0EF520FA0CFC02FA0EF7A6
:10024C004CEA050C00FA0EF44FEA174A250CBCFBDD
:10025C00FAF81FFA87F90AFB18CC45EA0C4508FB9B
:10026C0009F3AB420AD9ED1908F1FF3280F0238172
:10027C00AB4240F22081A8F102083D44ED1AA4B231
:10028C00B5FBFAF00AFB105544EA054400FB09F9EA
:10029C00A14509D9E41900F1FF3380F00A81A14589
:1002AC0040F2078102383C44A4EB090440EA0840C0
:1002BC000021002E61D024FA0EF400233460736008
:1002CC00BDE8F0878B4207D9002E54D0002186E878
:1002DC0021000846BDE8F087B3FA83F1002940F00D
:1002EC008E80AB4202D3824200F2FA80841A65EB14
:1002FC0003050120AC46002E3FD086E81010BDE867
:10030C00F08712B90127B7FBF2F7B7FA87FEBEF1F7
:10031C00000F34D1EB1B3A0C1FFA87FC0121B3FB05
:10032C00F2F8250C02FB183345EA03450CFB08F3E5
:10033C00AB4207D9ED1908F1FF3002D2AB4200F203
:10034C00D1808046ED1AA3B2B5FBF2F002FB10553A
:10035C0043EA05440CFB00FCA44507D9E41900F161
:10036C00FF3302D2A44500F2B8801846A4EB0C046B
:10037C0040EA08409DE731463046BDE8F087CEF1B3
:10038C00200405FA0EF307FA0EF720FA04F83A0CDB
:10039C0025FA04F448EA0308B4FBF2F14FEA1845D5
:1003AC0002FB11441FFA87FC45EA044501FB0CF3E0
:1003BC00AB4200FA0EF409D9ED1901F1FF3080F0CF
:1003CC008A80AB4240F2878002393D44EB1A1FFA17
:1003DC0088F5B3FBF2F002FB103345EA034500FB52
:1003EC000CF3AB4207D9ED1900F1FF386FD2AB42D9
:1003FC006DD902383D44EB1A40EA01418FE7C1F157
:10040C00200722FA07F88B4005FA01F448EA0303A7
:10041C0020FA07FE4FEA134CFD404EEA040EB5FBE2
:10042C00FCF94FEA1E440CFB19551FFA83F844EAF9
:10043C00054509FB08F4AC4202FA01F200FA01FA94
:10044C0008D9ED1809F1FF3043D2AC4241D9A9F1DA
:10045C0002091D442D1B1FFA8EFEB5FBFCF00CFB94
:10046C0010554EEA054400FB08F8A04507D9E418DE
:10047C0000F1FF3529D2A04527D902381C4440EAA7
:10048C000940A4EB0804A0FB02894C45C6464D4626
:10049C0015D312D056B1BAEB0E0364EB050404FA73
:1004AC0007F7CB401F43CC40376074600021BDE898
:1004BC00F0871846F8E69046E0E6C245EAD2B8EB7B
:1004CC00020E69EB03050138E4E72846D7E74046FE
:1004DC0091E78146BEE7014678E702383C4445E7A0
:1004EC00084608E7A8F102083D442BE7704700BF17
:1004FC0080B500AF0022FF21024800F0A5FD00BF2F
:10050C0080BD00BF0000024080B582B000AF00F09B
:10051C0079FA00F06FF800F027F900F0D1F800F04C
:10052C00F9F80023FB715EE0FB79052B56D801A28C
:10053C0052F823F0590500087105000889050008D8
:10054C00A1050008B9050008D1050008FFF7D0FF88
:10055C000122F021264800F077FD4FF47A7000F06C
:10056C00C3FA3DE0FFF7C4FF0122AA21204800F0A6
:10057C006BFD4FF47A7000F0B7FA31E0FFF7B8FF7B
:10058C000122CC211A4800F05FFD4FF47A7000F084
:10059C00ABFA25E0FFF7ACFF0122E721144800F08D
:1005AC0053FD4FF47A7000F09FFA19E0FFF7A0FFAB
:1005BC00012233210E4800F047FD4FF47A7000F011
:1005CC0093FA0DE0FFF794FF0122C321084800F0D5
:1005DC003BFD4FF47A7000F087FA01E0FFF788FFDB
:1005EC00FB790133FB71FB79052B9DD999E700BF92
:1005FC000000024080B594B000AF07F12003302218
:10060C000021184601F0BCFD07F10C0300221A6012
:10061C005A609A60DA601A610023BB60264A264B46
:10062C001B6C43F080531364234B1B6C03F08053FF
:10063C00BB60BB6800237B60204A204B1B6823F403
:10064C00404343F4804313601C4B1B6803F440434A
:10065C007B607B6802233B620123FB6210233B63BC
:10066C000023BB6307F12003184600F007FD034687
:10067C00002B01D000F0DCF80F23FB6000233B6162
:10068C0000237B614FF4A053BB614FF48053FB619B
:10069C0007F10C030021184600F060FF0346002B05
:1006AC0001D000F0C5F800220021002001F03CF838
:1006BC0000BF5037BD4680BD00380240007000407E
:1006CC0080B500AF114B124A1A60104B4FF4E13257
:1006DC005A600E4B00229A600C4B0022DA600B4BD6
:1006EC0000221A61094B0C225A61084B00229A61B4
:1006FC00064B0022DA61054801F068F90346002B2D
:10070C0001D000F095F800BF80BD00BF280000208C
:10071C000010014080B500AF114B124A1A60104B0B
:10072C004FF4E1325A600E4B00229A600C4B0022BF
:10073C00DA600B4B00221A61094B0C225A61084BF0
:10074C0000229A61064B0022DA61054801F03EF95D
:10075C000346002B01D000F06BF800BF80BD00BF3A
:10076C00680000200014014080B588B000AF07F18C
:10077C000C0300221A605A609A60DA601A61002336
:10078C00BB60294A284B1B6B43F001031363264BB8
:10079C001B6B03F00103BB60BB6800237B60224A28
:1007AC00214B1B6B43F0040313631F4B1B6B03F0B8
:1007BC0004037B607B680022FF211C4800F044FC92
:1007CC00FF23FB6001233B6100237B610023BB61A2
:1007DC0007F10C031946154800F08CFA4FF480739E
:1007EC00FB6002233B6100237B610023BB61002380
:1007FC00FB6107F10C0319460C4800F07BFA4FF42F
:10080C00C053FB6002233B6100237B610323BB616C
:10081C000A23FB6107F10C031946044800F06AFA3D
:10082C0000BF2037BD4680BD0038024000000240AA
:10083C0080B400AF72B6FEE780B483B000AF002383
:10084C007B60104A0F4B5B6C43F4804353640D4B3D
:10085C005B6C03F480437B607B6800233B60094A3C
:10086C00084B1B6C43F080531364064B1B6C03F05A
:10087C0080533B603B6800BF0C37BD465DF8047B82
:10088C00704700BF0038024080B58CB000AF786074
:10089C0007F11C0300221A605A609A60DA601A6130
:1008AC007B681B68324A93422DD10023BB61314ACD
:1008BC00304B5B6C43F0100353642E4B5B6C03F0BA
:1008CC001003BB61BB6900237B612A4A294B1B6B5C
:1008DC0043F001031363274B1B6B03F001037B6194
:1008EC007B694FF4C063FB6102233B6200237B6294
:1008FC000323BB620723FB6207F11C0319461E4846
:10090C0000F0F8F930E07B681B681C4A93422BD14D
:10091C0000233B61174A174B5B6C43F02003536475
:10092C00144B5B6C03F020033B613B690023FB60C1
:10093C00104A104B1B6B43F0040313630D4B1B6BE2
:10094C0003F00403FB60FB68C023FB6102233B62E2
:10095C0000237B620323BB620823FB6207F11C03A9
:10096C001946074800F0C6F900BF3037BD4680BDB8
:10097C000010014000380240000002400014014009
:10098C000008024080B400AFFEE780B400AFFEE781
:10099C0080B400AFFEE780B400AFFEE780B400AFD8
:1009AC00FEE780B400AF00BFBD465DF8047B704726
:1009BC0080B400AF00BFBD465DF8047B704780B4C7
:1009CC0000AF00BFBD465DF8047B704780B500AF3B
:1009DC0000F06AF800BF80BD80B400AF084A084B35
:1009EC00D3F8883043F47003C2F88830044B4FF0CE
:1009FC0000629A6000BFBD465DF8047B704700BF83
:100A0C0000ED00E080B500AF0E4A0E4B1B6843F4BE
:100A1C00007313600B4A0B4B1B6843F48063136029
:100A2C00084A084B1B6843F480731360032000F0E2
:100A3C002DF9002000F008F8FFF7FEFE0023184601
:100A4C0080BD00BF003C024080B582B000AF786032
:100A5C00124B1A68124B1B7819464FF47A73B3FB7E
:100A6C00F1F3B2FBF3F3184600F037F90346002B11
:100A7C0001D001230EE07B680F2B0AD80022796885
:100A8C004FF0FF3000F00DF9064A7B68136000232D
:100A9C0000E0012318460837BD4680BD0000002049
:100AAC00080000200400002080B400AF064B1B7827
:100ABC001A46064B1B681344044A136000BFBD461C
:100ACC005DF8047B704700BF08000020A8000020E0
:100ADC0080B400AF034B1B681846BD465DF8047B21
:100AEC00704700BFA800002080B584B000AF7860CC
:100AFC00FFF7EEFFB8607B68FB60FB68B3F1FF3F6C
:100B0C0005D0094B1B781A46FB681344FB6000BFE9
:100B1C00FFF7DEFF0246BB68D21AFB689A42F7D396
:100B2C0000BF1037BD4680BD0800002080B485B0E2
:100B3C0000AF78607B6803F00703FB600C4BDB684D
:100B4C00BB60BA684FF6FF031340BB60FB681A0228
:100B5C00BB68134343F0BF6343F40033BB60044AE8
:100B6C00BB68D36000BF1437BD465DF8047B70478B
:100B7C0000ED00E080B400AF044BDB681B0A03F00F
:100B8C0007031846BD465DF8047B704700ED00E096
:100B9C0080B483B000AF03463960FB7197F907301E
:100BAC00002B0ADB0D4997F907303A68D2B21201D3
:100BBC00D2B20B4483F800230AE00949FB7903F015
:100BCC000F03043B3A68D2B21201D2B20B441A762C
:100BDC0000BF0C37BD465DF8047B704700E100E0B8
:100BEC0000ED00E080B489B000AFF860B9607A60C5
:100BFC00FB6803F00703FB61FB69C3F10703042BDC
:100C0C0028BF0423BB61FB690433062B02D9FB69A3
:100C1C00033B00E000237B610122BB6902FA03F372
:100C2C005A1EBB681A407B699A4001217B6901FA04
:100C3C0003F3591E7B680B40134318462437BD46FB
:100C4C005DF8047B7047000080B582B000AF78601F
:100C5C007B68013BB3F1807F01D301230FE00A4A8B
:100C6C007B68013B53600F214FF0FF30FFF790FF83
:100C7C00054B00229A60044B07221A600023184689
:100C8C000837BD4680BD00BF10E000E080B582B0E3
:100C9C0000AF78607868FFF749FF00BF0837BD46A2
:100CAC0080BD80B586B000AF0346B9607A60FB7337
:100CBC0000237B61FFF75EFF78617A68B968786919
:100CCC00FFF790FF024697F90F3011461846FFF7D1
:100CDC005FFF00BF1837BD4680BD80B582B000AF46
:100CEC0078607868FFF7B0FF034618460837BD46B2
:100CFC0080BD000080B489B000AF786039600023FB
:100D0C007B6100233B610023BB610023FB6177E126
:100D1C000122FB6902FA03F37B613B681A687B6969
:100D2C0013403B613A697B699A4240F066813B68AB
:100D3C005B68012B0BD03B685B68022B07D03B68D0
:100D4C005B68112B03D03B685B68122B30D17B683E
:100D5C009B68BB61FB695B00032202FA03F3DB4374
:100D6C00BA691340BB613B68DA68FB695B0002FA45
:100D7C0003F3BA691343BB617B68BA699A607B68F9
:100D8C005B68BB610122FB6902FA03F3DB43BA69BE
:100D9C001340BB613B685B681B0903F00102FB69F4
:100DAC0002FA03F3BA691343BB617B68BA695A60F0
:100DBC007B68DB68BB61FB695B00032202FA03F30F
:100DCC00DB43BA691340BB613B689A68FB695B0003
:100DDC0002FA03F3BA691343BB617B68BA69DA6040
:100DEC003B685B68022B03D03B685B68122B23D1FA
:100DFC00FB69DA087B68083253F82230BB61FB6967
:100E0C0003F007039B000F2202FA03F3DB43BA69DA
:100E1C001340BB613B681A69FB6903F007039B0035
:100E2C0002FA03F3BA691343BB61FB69DA087B6806
:100E3C000832B96943F822107B681B68BB61FB69F7
:100E4C005B00032202FA03F3DB43BA691340BB6174
:100E5C003B685B6803F00302FB695B0002FA03F377
:100E6C00BA691343BB617B68BA691A603B685B68FB
:100E7C0003F08053002B00F0C0800023FB60654A18
:100E8C00644B5B6C43F480435364624B5B6C03F4C4
:100E9C008043FB60FB68604AFB699B08023352F895
:100EAC002330BB61FB6903F003039B000F2202FAA2
:100EBC0003F3DB43BA691340BB617B68574A934227
:100ECC0037D07B68564A934231D07B68554A93425F
:100EDC002BD07B68544A934225D07B68534A93426B
:100EEC001FD07B68524A934219D07B68514A934277
:100EFC0013D07B68504A93420DD07B684F4A934283
:100F0C0007D07B684E4A934201D1092312E00A2391
:100F1C0010E008230EE007230CE006230AE005236B
:100F2C0008E0042306E0032304E0022302E001238B
:100F3C0000E00023FA6902F0030292009340BA69C0
:100F4C001343BB613449FB699B080233BA6941F80E
:100F5C0023203C4B1B68BB613B69DB43BA691340E4
:100F6C00BB613B685B6803F48033002B03D0BA6928
:100F7C003B691343BB61334ABB691360314B5B68FC
:100F8C00BB613B69DB43BA691340BB613B685B687F
:100F9C0003F40033002B03D0BA693B691343BB61E4
:100FAC00284ABB695360274B9B68BB613B69DB4399
:100FBC00BA691340BB613B685B6803F48013002B78
:100FCC0003D0BA693B691343BB611E4ABB6993608A
:100FDC001C4BDB68BB613B69DB43BA691340BB61EB
:100FEC003B685B6803F40013002B03D0BA693B69C0
:100FFC001343BB61134ABB69D360FB690133FB61CB
:10100C00FB690F2B7FF684AE00BF2437BD465DF81D
:10101C00047B704700380240003801400000024059
:10102C000004024000080240000C02400010024084
:10103C000014024000180240001C02400020024034
:10104C0000240240003C014080B483B000AF7860C3
:10105C000B467B8013467B707B78002B03D07A8801
:10106C007B689A6103E07B881A047B689A6100BFF5
:10107C000C37BD465DF8047B7047000080B586B028
:10108C0000AF78607B68002B01D101235BE27B68A9
:10109C001B6803F00103002B75D0A34B9B6803F076
:1010AC000C03042B0CD0A04B9B6803F00C03082BF7
:1010BC0012D19D4B5B6803F48003B3F5800F0BD109
:1010CC00994B1B6803F40033002B5BD07B685B6887
:1010DC00002B57D1012336E27B685B68B3F5803F68
:1010EC0006D1914A904B1B6843F4803313601DE08A
:1010FC007B685B68B3F5A02F0CD18B4A8A4B1B68BD
:10110C0043F480231360884A874B1B6843F4803375
:10111C0013600BE0844A844B1B6823F48033136008
:10112C00814A814B1B6823F4802313607B685B68C6
:10113C00002B13D0FFF7CCFC386108E0FFF7C8FC9C
:10114C0002463B69D31A642B01D90323FBE1764B8E
:10115C001B6803F40033002BF0D014E0FFF7B8FC4D
:10116C00386108E0FFF7B4FC02463B69D31A642BE4
:10117C0001D90323E7E16C4B1B6803F40033002B0C
:10118C00F0D100E000BF7B681B6803F00203002B6A
:10119C0063D0654B9B6803F00C03002B0BD0624BA8
:1011AC009B6803F00C03082B1CD15F4B5B6803F4AA
:1011BC008003002B16D15C4B1B6803F00203002B41
:1011CC0005D07B68DB68012B01D00123BBE15649BC
:1011DC00554B1B6823F0F8027B681B69DB0013433B
:1011EC000B603AE07B68DB68002B20D04F4B012270
:1011FC001A60FFF76DFC386108E0FFF769FC0246E6
:10120C003B69D31A022B01D903239CE1464B1B6883
:10121C0003F00203002BF0D04349434B1B6823F02F
:10122C00F8027B681B69DB0013430B6015E03F4B36
:10123C0000221A60FFF74CFC386108E0FFF748FC0D
:10124C0002463B69D31A022B01D903237BE1364BAF
:10125C001B6803F00203002BF0D17B681B6803F0C2
:10126C000803002B30D07B685B69002B16D0304B09
:10127C0001221A60FFF72CFC386108E0FFF728FC0C
:10128C0002463B69D31A022B01D903235BE1264B9F
:10129C005B6F03F00203002BF0D015E0244B00220F
:1012AC001A60FFF715FC386108E0FFF711FC0246E5
:1012BC003B69D31A022B01D9032344E11A4B5B6F10
:1012CC0003F00203002BF0D17B681B6803F00403CE
:1012DC00002B00F0A0800023FB75134B1B6C03F05C
:1012EC008053002B0FD10023BB600F4A0E4B1B6C9D
:1012FC0043F0805313640C4B1B6C03F08053BB60A6
:10130C00BB680123FB750B4B1B6803F48073002B2C
:10131C0021D1084A074B1B6843F480731360FFF715
:10132C00D7FB386111E000BF003802400000474293
:10133C00800E474200700040FFF7CAFB02463B6933
:10134C00D31A022B01D90323FDE0814B1B6803F454
:10135C008073002BF0D07B689B68012B06D17D4AF3
:10136C007C4B1B6F43F0010313671CE07B689B688D
:10137C00052B0CD1774A774B1B6F43F00403136793
:10138C00744A744B1B6F43F0010313670BE0714AF3
:10139C00704B1B6F23F0010313676E4A6D4B1B6F71
:1013AC0023F0040313677B689B68002B15D0FFF7B1
:1013BC008FFB38610AE0FFF78BFB02463B69D31ABF
:1013CC0041F28832934201D90323BCE0614B1B6F7D
:1013DC0003F00203002BEED014E0FFF779FB386129
:1013EC000AE0FFF775FB02463B69D31A41F28832DB
:1013FC00934201D90323A6E0564B1B6F03F0020363
:10140C00002BEED1FB7D012B05D1524A514B1B6CAD
:10141C0023F0805313647B689B69002B00F092804F
:10142C004C4B9B6803F00C03082B5CD07B689B69CE
:10143C00022B41D1484B00221A60FFF749FB38615F
:10144C0008E0FFF745FB02463B69D31A022B01D992
:10145C00032378E03F4B1B6803F00073002BF0D1A3
:10146C003C497B68DA697B681B6A1A437B685B6A58
:10147C009B011A437B689B6A5B08013B1B041A4364
:10148C007B68DB6A1B0613434B60334B01221A60EB
:10149C00FFF71EFB386108E0FFF71AFB02463B69B9
:1014AC00D31A022B01D903234DE02A4B1B6803F0FE
:1014BC000073002BF0D045E0274B00221A60FFF799
:1014CC0007FB386108E0FFF703FB02463B69D31AC0
:1014DC00022B01D9032336E01E4B1B6803F000736B
:1014EC00002BF0D12EE07B689B69012B01D10123ED
:1014FC0029E0184B5B68FB60FB6803F480027B6897
:10150C00DB699A421CD1FB6803F03F027B681B6AC3
:10151C009A4215D1FA6847F6C07313407A68526A3A
:10152C0093420DD1FB6803F440327B689B6A9A426C
:10153C0006D1FB6803F070627B68DB6A9A4201D0CB
:10154C00012300E0002318461837BD4680BD00BFBC
:10155C0000700040003802406000474280B584B003
:10156C0000AF786039607B68002B01D10123CCE09F
:10157C00684B1B6803F00F023B689A420CD2654B18
:10158C003A68D2B21A70634B1B6803F00F023B68C7
:10159C009A4201D00123B8E07B681B6803F0020378
:1015AC00002B20D07B681B6803F00403002B05D0B4
:1015BC00594A594B9B6843F4E05393607B681B6812
:1015CC0003F00803002B05D0534A534B9B6843F49C
:1015DC00604393605049504B9B6823F0F0027B684A
:1015EC009B6813438B607B681B6803F00103002B23
:1015FC0044D07B685B68012B07D1474B1B6803F415
:10160C000033002B19D101237FE07B685B68022B30
:10161C0003D07B685B68032B07D13F4B1B6803F03F
:10162C000073002B09D101236FE03B4B1B6803F0C7
:10163C000203002B01D1012367E03749364B9B682D
:10164C0023F003027B685B6813438B60FFF740FA5F
:10165C00F8600AE0FFF73CFA0246FB68D31A41F245
:10166C008832934201D903234FE02B4B9B6803F044
:10167C000C027B685B689B009A42EBD1254B1B6884
:10168C0003F00F023B689A420CD9224B3A68D2B253
:10169C001A70204B1B6803F00F023B689A4201D072
:1016AC00012332E07B681B6803F00403002B08D095
:1016BC001949194B9B6823F4E0527B68DB68134390
:1016CC008B607B681B6803F00803002B09D0124960
:1016DC00114B9B6823F460427B681B69DB0013434E
:1016EC008B6000F089F801460B4B9B681B0903F0DB
:1016FC000F030A4AD35C21FA03F3094A1360094B1E
:10170C001B681846FFF7A0F9002318461037BD4692
:10171C0080BD00BF003C024000380240B4210008EC
:10172C00000000200400002080B58CB000AFF860F1
:10173C00B9607A60FB68002B29D10023BB612B4A6E
:10174C002A4B1B6B43F001031363284B1B6B03F0F9
:10175C000103BB61BB694FF48073FB6102233B62E5
:10176C000323BB6200237B620023FB6207F11C0393
:10177C0019461F48FFF7BEFA1C481C4B9B6823F008
:10178C00EC62B9687B680B431343836029E0002348
:10179C007B61164A154B1B6B43F004031363134B0D
:1017AC001B6B03F004037B617B694FF40073FB61DB
:1017BC0002233B620323BB6200237B620023FB6298
:1017CC0007F11C0319460B48FFF794FA0748074B1F
:1017DC009B6823F078427B68D900BB680B431343AA
:1017EC00836000BF3037BD4680BD00BF003802406B
:1017FC0000000240000802402DE9F04F87B000AF16
:10180C000022FA6000227A610022BA6000223A615A
:10181C00514A926802F00C02042A07D0082A08D018
:10182C00002A40F090804D4B3B618FE04C4B3B616C
:10183C008CE0494A526802F03F02FA60464A52680C
:10184C0002F48002002A23D0434B5B689B094FF0C3
:10185C00000440F2FF114FF0000203EA010304EA16
:10186C0002043F4A02FB04F1002202FB03F20A4489
:10187C003B49A3FB010153181946FB684FF00004C8
:10188C001A462346FEF7ACFC03460C467B614CE043
:10189C00314A5268920911464FF0000240F2FF158E
:1018AC004FF0000605EA010506EA02062946324613
:1018BC004FEA421B4BEAD16B4FEA411A51465A464A
:1018CC00AA46B34655465E464D1B62EB06062946B4
:1018DC003246940144EA91648B015B1A64EB020476
:1018EC004FEAC40949EA53794FEAC30843464C46C8
:1018FC0055465E46ED1846EB04062B463446A202CE
:10190C007A607A6842EA93527A609B023B6097E86D
:10191C00180018462146FB684FF000041A4623466F
:10192C00FEF75EFC03460C467B610B4B5B681B0CA5
:10193C0003F0030301335B00BB607A69BB68B2FB45
:10194C00F3F33B6102E0054B3B6100BF3B6918467A
:10195C001C37BD46BDE8F08F003802400024F4006F
:10196C0040787D0180B400AF034B1B681846BD4620
:10197C005DF8047B704700BF0000002080B500AF0D
:10198C00FFF7F0FF0146054B9B689B0A03F007032A
:10199C00034AD35C21FA03F3184680BD0038024099
:1019AC00C421000880B500AFFFF7DCFF0146054BF2
:1019BC009B685B0B03F00703034AD35C21FA03F328
:1019CC00184680BD00380240C421000880B582B0A2
:1019DC0000AF78607B68002B01D101233FE07B686E
:1019EC0093F83930DBB2002B06D17B68002283F8E8
:1019FC0038207868FEF748FF7B68242283F839206A
:101A0C007B681B687A681268D26822F40052DA602C
:101A1C00786800F029F87B681B687A68126812698C
:101A2C0022F490421A617B681B687A6812685269CA
:101A3C0022F02A025A617B681B687A681268D268A5
:101A4C0042F40052DA607B680022DA637B68202261
:101A5C0083F839207B68202283F83A20002318462B
:101A6C000837BD4680BD00002DE9F04FA3B000AF94
:101A7C00F867FB6F1968FB6F1B681B6923F44052F6
:101A8C00FB6FDB6813430B61FB6F9A68FB6F1B6981
:101A9C001A43FB6F5B691A43FB6FDB691343C7F88F
:101AAC008430FB6F1968FB6F1B68DB6823F41642EC
:101ABC0022F00C02D7F884301343CB60FB6F19680B
:101ACC00FB6F1B685B6923F44072FB6F9B691343CC
:101ADC004B61FB6FDB69B3F5004F40F07181FB6F1D
:101AEC001B68B44A934205D0FB6F1B68B24A934201
:101AFC0040F0B180FFF756FFC7F88000FB6F1D6800
:101B0C00D7F8803019464FF000020B461446DB180C
:101B1C0044EB04045B1844EB0204E0007864786C3A
:101B2C0040EA53707864DB003B64D7E9103413EB64
:101B3C00010844EB020940464946FB6F5B684FF0D5
:101B4C000004DB1844EB04041A462346FEF748FB5A
:101B5C0003460C461A46994BA3FB02235B091E0154
:101B6C00D7F8803019464FF000020B461446DB18AC
:101B7C0044EB04045B1844EB0204E000F863F86BDC
:101B8C0040EA5370F863DB00BB63D7E90E3413EB08
:101B9C00010844EB020940464946FB6F5B684FF075
:101BAC000004DB1844EB04041A462346FEF718FB2A
:101BBC0003460C461A46814BA3FB02135B096421B6
:101BCC0001FB03F3D31ADB0032337C4AA2FB032361
:101BDC005B095B0003F4F8731E44D7F88030194698
:101BEC004FF000020B461446DB1844EB04045B1860
:101BFC0044EB0204E0007863786B40EA537078633E
:101C0C00DB003B63D7E90C3413EB010844EB02090E
:101C1C0040464946FB6F5B684FF00004DB1844EB11
:101C2C0004041A462346FEF7DBFA03460C461A4612
:101C3C00624BA3FB02135B09642101FB03F3D31A70
:101C4C00DB0032335D4AA2FB03235B0903F007037D
:101C5C003344AB6040E2FFF791FEC7F88000FB6FA6
:101C6C001A683A67D7F8803019464FF000020B46D5
:101C7C001446DB1844EB04045B1844EB0204E0004C
:101C8C00F862F86A40EA5370F862DB00BB62D7E98D
:101C9C000A345D1844EB020628463146FB6F5B683C
:101CAC004FF00004DB1844EB04041A462346FEF7FD
:101CBC0097FA03460C461A46404BA3FB02235B09DA
:101CCC001E01D7F8803019464FF000020B4614461F
:101CDC00DB1844EB04045B1844EB02044FEAC40B1E
:101CEC004BEA537B4FEAC30A53465C4613EB010A9B
:101CFC0044EB020B50465946FB6F5B684FF00004F7
:101D0C00DB1844EB04041A462346FEF769FA034633
:101D1C000C461A46294BA3FB02135B09642101FBF9
:101D2C0003F3D31ADB003233244AA2FB03235B09EF
:101D3C005B0003F4F8731E44D7F8803019464FF05B
:101D4C0000020B461446DB1844EB04045B1844EB0E
:101D5C0002044FEAC40949EA53794FEAC3084346DF
:101D6C004C4613EB010844EB020940464946FB6F15
:101D7C005B684FF00004DB1844EB04041A4623465E
:101D8C00FEF72EFA03460C461A460C4BA3FB021325
:101D9C005B09642101FB03F3D31ADB003233074ADE
:101DAC00A2FB03235B0903F0070333443A6F9360F0
:101DBC0092E100BF00100140001401401F85EB515F
:101DCC00FB6F1A68C14B9A4205D0FB6F1A68C04B67
:101DDC009A4240F0BF80FFF7E5FDC7F88000FB6F2B
:101DEC001E68D7F8803019464FF000020B46144697
:101DFC00DB1844EB04045B1844EB0204E00078624B
:101E0C00786A40EA53707862DB003B62D7E90834A9
:101E1C0013EB010844EB020940464946FB6F5B6833
:101E2C004FF00004A200FA65FA6D42EA9372FA656B
:101E3C009B00BB65D7E91623FEF7D2F903460C4687
:101E4C001A46A44BA3FB02235B091D01D7F8803073
:101E5C0019464FF000020B461446DB1844EB040401
:101E6C005B1844EB0204E000F861F86940EA537037
:101E7C00F861DB00BB61D7E9063413EB010844EBD6
:101E8C00020940464946FB6F5B684FF00004A20014
:101E9C007A657A6D42EA93727A659B003B65D7E965
:101EAC001423FEF79DF903460C461A46894BA3FBF7
:101EBC0002135B09642101FB03F3D31A1B013233B8
:101ECC00844AA2FB03235B0903F0F0031D44D7F8FB
:101EDC00803019464FF000020B461446DB1844EBD9
:101EEC0004045B1844EB0204E0007861786940EA72
:101EFC0053707861DB003B61D7E9043413EB0108C4
:101F0C0044EB020940464946FB6F5B684FF0000406
:101F1C00A200FA64FA6C42EA9372FA649B00BB6406
:101F2C00D7E91223FEF75CF903460C461A46694BB7
:101F3C00A3FB02135B09642101FB03F3D31A1B01FE
:101F4C003233644AA2FB03235B0903F00F032B44D7
:101F5C00B360C1E0FFF712FDC7F88000FB6F1B6890
:101F6C00BB65D7F8803019464FF000020B4614467B
:101F7C00DB1844EB04045B1844EB0204E60046EA6D
:101F8C005376DD002B4634465D1844EB020628469A
:101F9C003146FB6F5B684FF00004A5007D677D6FD9
:101FAC0045EA93757D679C003C67D7E91C23FEF7D7
:101FBC0017F903460C461A46464BA3FB02135B0962
:101FCC001D01D7F8803019464FF000020B4614461D
:101FDC00DB1844EB04045B1844EB0204E000F860EB
:101FEC00F86840EA5370F860D800B860D7E902345A
:101FFC0013EB010844EB020940464946FB6F5B6852
:10200C004FF00004A600FE66FE6E46EA9376FE666E
:10201C009C00BC66D7E91A23FEF7E2F803460C468F
:10202C001A462C4BA3FB02135B09642101FB03F33F
:10203C00D31A1B013233274AA2FB03135B0903F0AB
:10204C00F0031D44D7F8803019464FF000020B46C0
:10205C001446DB1844EB04045B1844EB0204E00068
:10206C007860786840EA53707860D800386097E8F8
:10207C00180013EB010844EB020940464946FB6F7C
:10208C005B684FF00004A6007E667E6E46EA93768F
:10209C007E669C003C66D7E91823FEF7A1F8034640
:1020AC000C461A460B4BA3FB02135B09642101FB84
:1020BC0003F3D31A1B013233064AA2FB03135B0949
:1020CC0003F00F032B44BA6D936005E00010014040
:1020DC00001401401F85EB5100BF8C37BD46BDE895
:1020EC00F08F00BFDFF834D0002103E00C4B5B58BD
:1020FC00435004310B480C4B42189A42F6D30B4A0E
:10210C0002E0002342F8043B094B9A42F9D3FEF754
:10211C0063FC00F011F8FEF7F7F97047000003209C
:10212C00DC210008000000200C0000200C00002026
:10213C00AC000020FEE7000070B50D4E0D4CA41B4A
:10214C00A4100025A54209D10B4E0C4C00F020F830
:10215C00A41BA4100025A54205D170BD56F825304E
:10216C0098470135EEE756F8253098470135F2E7E8
:10217C00D4210008D4210008D4210008D82100085B
:10218C0002440346934200D1704703F8011BF9E760
:10219C00F8B500BFF8BC08BC9E467047F8B500BF48
:0821AC00F8BC08BC9E46704718
:1021B40000000000000000000102030406070809F3
:0821C400000000000102030409
:0821CC0050E0FF7F010000005C
:0421D400D10100082D
:0421D800AD0100084D
:0C21DC000024F4001000000001000000CE
:04000005080020F1DE
:00000001FF
